{
  "contractName": "Catalog",
  "abi": [
    {
      "inputs": [],
      "stateMutability": "nonpayable",
      "type": "constructor"
    },
    {
      "inputs": [
        {
          "internalType": "uint256",
          "name": "",
          "type": "uint256"
        }
      ],
      "name": "all_products",
      "outputs": [
        {
          "internalType": "uint256",
          "name": "id",
          "type": "uint256"
        },
        {
          "internalType": "string",
          "name": "brandName",
          "type": "string"
        },
        {
          "internalType": "string",
          "name": "genericName",
          "type": "string"
        },
        {
          "internalType": "string",
          "name": "form",
          "type": "string"
        },
        {
          "internalType": "string",
          "name": "strength",
          "type": "string"
        },
        {
          "internalType": "string",
          "name": "packaging",
          "type": "string"
        }
      ],
      "stateMutability": "view",
      "type": "function",
      "constant": true
    },
    {
      "inputs": [],
      "name": "totalProduct",
      "outputs": [
        {
          "internalType": "uint256",
          "name": "",
          "type": "uint256"
        }
      ],
      "stateMutability": "view",
      "type": "function",
      "constant": true
    },
    {
      "inputs": [
        {
          "internalType": "address",
          "name": "acc",
          "type": "address"
        }
      ],
      "name": "approved",
      "outputs": [
        {
          "internalType": "bool",
          "name": "",
          "type": "bool"
        }
      ],
      "stateMutability": "view",
      "type": "function",
      "constant": true
    },
    {
      "inputs": [
        {
          "internalType": "address",
          "name": "acc",
          "type": "address"
        }
      ],
      "name": "registerAdmin",
      "outputs": [],
      "stateMutability": "nonpayable",
      "type": "function"
    },
    {
      "inputs": [],
      "name": "read",
      "outputs": [
        {
          "components": [
            {
              "internalType": "uint256",
              "name": "id",
              "type": "uint256"
            },
            {
              "internalType": "string",
              "name": "brandName",
              "type": "string"
            },
            {
              "internalType": "string",
              "name": "genericName",
              "type": "string"
            },
            {
              "internalType": "string",
              "name": "form",
              "type": "string"
            },
            {
              "internalType": "string",
              "name": "strength",
              "type": "string"
            },
            {
              "internalType": "string",
              "name": "packaging",
              "type": "string"
            }
          ],
          "internalType": "struct Catalog.Product[]",
          "name": "",
          "type": "tuple[]"
        }
      ],
      "stateMutability": "view",
      "type": "function",
      "constant": true
    },
    {
      "inputs": [
        {
          "internalType": "string",
          "name": "_name",
          "type": "string"
        }
      ],
      "name": "search",
      "outputs": [
        {
          "components": [
            {
              "internalType": "uint256",
              "name": "id",
              "type": "uint256"
            },
            {
              "internalType": "string",
              "name": "brandName",
              "type": "string"
            },
            {
              "internalType": "string",
              "name": "genericName",
              "type": "string"
            },
            {
              "internalType": "string",
              "name": "form",
              "type": "string"
            },
            {
              "internalType": "string",
              "name": "strength",
              "type": "string"
            },
            {
              "internalType": "string",
              "name": "packaging",
              "type": "string"
            }
          ],
          "internalType": "struct Catalog.Product",
          "name": "",
          "type": "tuple"
        }
      ],
      "stateMutability": "view",
      "type": "function",
      "constant": true
    },
    {
      "inputs": [
        {
          "internalType": "string",
          "name": "_brandName",
          "type": "string"
        },
        {
          "internalType": "string",
          "name": "_genericName",
          "type": "string"
        },
        {
          "internalType": "string",
          "name": "_form",
          "type": "string"
        },
        {
          "internalType": "string",
          "name": "_strength",
          "type": "string"
        },
        {
          "internalType": "string",
          "name": "_packaging",
          "type": "string"
        }
      ],
      "name": "newProduct",
      "outputs": [],
      "stateMutability": "nonpayable",
      "type": "function"
    },
    {
      "inputs": [
        {
          "internalType": "uint256",
          "name": "_id",
          "type": "uint256"
        },
        {
          "internalType": "string",
          "name": "_brandName",
          "type": "string"
        },
        {
          "internalType": "string",
          "name": "_genericName",
          "type": "string"
        },
        {
          "internalType": "string",
          "name": "_form",
          "type": "string"
        },
        {
          "internalType": "string",
          "name": "_strength",
          "type": "string"
        },
        {
          "internalType": "string",
          "name": "_packaging",
          "type": "string"
        }
      ],
      "name": "updateProduct",
      "outputs": [],
      "stateMutability": "nonpayable",
      "type": "function"
    },
    {
      "inputs": [
        {
          "internalType": "uint256",
          "name": "_id",
          "type": "uint256"
        }
      ],
      "name": "deleteProduct",
      "outputs": [],
      "stateMutability": "nonpayable",
      "type": "function"
    }
  ],
  "bytecode": "0x608060405234801561001057600080fd5b506001600360003373ffffffffffffffffffffffffffffffffffffffff1673ffffffffffffffffffffffffffffffffffffffff16815260200190815260200160002060006101000a81548160ff021916908315150217905550600080819055506001808190555061249a806100866000396000f3fe608060405234801561001057600080fd5b50600436106100935760003560e01c806395bb77e31161006657806395bb77e314610120578063c38c581314610155578063d8b964e614610171578063da6ca58c146101a1578063ed90c7b7146101bd57610093565b80631539cabd14610098578063566bceef146100b457806357de26a4146100d2578063820ed086146100f0575b600080fd5b6100b260048036038101906100ad9190611933565b6101d9565b005b6100bc610418565b6040516100c99190611fbf565b60405180910390f35b6100da61041e565b6040516100e79190611ee0565b60405180910390f35b61010a600480360381019061010591906118f2565b610761565b6040516101179190611f9d565b60405180910390f35b61013a60048036038101906101359190611a22565b610bf9565b60405161014c96959493929190611fda565b60405180910390f35b61016f600480360381019061016a91906118c9565b610eed565b005b61018b600480360381019061018691906118c9565b610fd9565b6040516101989190611f02565b60405180910390f35b6101bb60048036038101906101b69190611a4b565b61102f565b005b6101d760048036038101906101d29190611a22565b611307565b005b6101e233610fd9565b610221576040517f08c379a000000000000000000000000000000000000000000000000000000000815260040161021890611f5d565b60405180910390fd5b60005b6000548110156102ea5760028181548110610268577f4e487b7100000000000000000000000000000000000000000000000000000000600052603260045260246000fd5b90600052602060002090600602016001016040516102869190611ec9565b6040518091039020868051906020012014156102d7576040517f08c379a00000000000000000000000000000000000000000000000000000000081526004016102ce90611f3d565b60405180910390fd5b80806102e290612285565b915050610224565b5060026040518060c00160405280600154815260200187815260200186815260200185815260200184815260200183815250908060018154018082558091505060019003906000526020600020906006020160009091909190915060008201518160000155602082015181600101908051906020019061036b929190611691565b506040820151816002019080519060200190610388929190611691565b5060608201518160030190805190602001906103a5929190611691565b5060808201518160040190805190602001906103c2929190611691565b5060a08201518160050190805190602001906103df929190611691565b5050506000808154809291906103f490612285565b91905055506001600081548092919061040c90612285565b91905055505050505050565b60005481565b60606002805480602002602001604051908101604052809291908181526020016000905b8282101561075857838290600052602060002090600602016040518060c00160405290816000820154815260200160018201805461047f90612222565b80601f01602080910402602001604051908101604052809291908181526020018280546104ab90612222565b80156104f85780601f106104cd576101008083540402835291602001916104f8565b820191906000526020600020905b8154815290600101906020018083116104db57829003601f168201915b5050505050815260200160028201805461051190612222565b80601f016020809104026020016040519081016040528092919081815260200182805461053d90612222565b801561058a5780601f1061055f5761010080835404028352916020019161058a565b820191906000526020600020905b81548152906001019060200180831161056d57829003601f168201915b505050505081526020016003820180546105a390612222565b80601f01602080910402602001604051908101604052809291908181526020018280546105cf90612222565b801561061c5780601f106105f15761010080835404028352916020019161061c565b820191906000526020600020905b8154815290600101906020018083116105ff57829003601f168201915b5050505050815260200160048201805461063590612222565b80601f016020809104026020016040519081016040528092919081815260200182805461066190612222565b80156106ae5780601f10610683576101008083540402835291602001916106ae565b820191906000526020600020905b81548152906001019060200180831161069157829003601f168201915b505050505081526020016005820180546106c790612222565b80601f01602080910402602001604051908101604052809291908181526020018280546106f390612222565b80156107405780601f1061071557610100808354040283529160200191610740565b820191906000526020600020905b81548152906001019060200180831161072357829003601f168201915b50505050508152505081526020019060010190610442565b50505050905090565b610769611717565b60005b600054811015610bb8576000600282815481106107b2577f4e487b7100000000000000000000000000000000000000000000000000000000600052603260045260246000fd5b906000526020600020906006020160010180546107ce90612222565b80601f01602080910402602001604051908101604052809291908181526020018280546107fa90612222565b80156108475780601f1061081c57610100808354040283529160200191610847565b820191906000526020600020905b81548152906001019060200180831161082a57829003601f168201915b50505050509050808051906020012084805190602001201415610ba4576002828154811061089e577f4e487b7100000000000000000000000000000000000000000000000000000000600052603260045260246000fd5b90600052602060002090600602016040518060c0016040529081600082015481526020016001820180546108d190612222565b80601f01602080910402602001604051908101604052809291908181526020018280546108fd90612222565b801561094a5780601f1061091f5761010080835404028352916020019161094a565b820191906000526020600020905b81548152906001019060200180831161092d57829003601f168201915b5050505050815260200160028201805461096390612222565b80601f016020809104026020016040519081016040528092919081815260200182805461098f90612222565b80156109dc5780601f106109b1576101008083540402835291602001916109dc565b820191906000526020600020905b8154815290600101906020018083116109bf57829003601f168201915b505050505081526020016003820180546109f590612222565b80601f0160208091040260200160405190810160405280929190818152602001828054610a2190612222565b8015610a6e5780601f10610a4357610100808354040283529160200191610a6e565b820191906000526020600020905b815481529060010190602001808311610a5157829003601f168201915b50505050508152602001600482018054610a8790612222565b80601f0160208091040260200160405190810160405280929190818152602001828054610ab390612222565b8015610b005780601f10610ad557610100808354040283529160200191610b00565b820191906000526020600020905b815481529060010190602001808311610ae357829003601f168201915b50505050508152602001600582018054610b1990612222565b80601f0160208091040260200160405190810160405280929190818152602001828054610b4590612222565b8015610b925780601f10610b6757610100808354040283529160200191610b92565b820191906000526020600020905b815481529060010190602001808311610b7557829003601f168201915b50505050508152505092505050610bf4565b508080610bb090612285565b91505061076c565b506040517f08c379a0000000000000000000000000000000000000000000000000000000008152600401610beb90611f1d565b60405180910390fd5b919050565b60028181548110610c0957600080fd5b9060005260206000209060060201600091509050806000015490806001018054610c3290612222565b80601f0160208091040260200160405190810160405280929190818152602001828054610c5e90612222565b8015610cab5780601f10610c8057610100808354040283529160200191610cab565b820191906000526020600020905b815481529060010190602001808311610c8e57829003601f168201915b505050505090806002018054610cc090612222565b80601f0160208091040260200160405190810160405280929190818152602001828054610cec90612222565b8015610d395780601f10610d0e57610100808354040283529160200191610d39565b820191906000526020600020905b815481529060010190602001808311610d1c57829003601f168201915b505050505090806003018054610d4e90612222565b80601f0160208091040260200160405190810160405280929190818152602001828054610d7a90612222565b8015610dc75780601f10610d9c57610100808354040283529160200191610dc7565b820191906000526020600020905b815481529060010190602001808311610daa57829003601f168201915b505050505090806004018054610ddc90612222565b80601f0160208091040260200160405190810160405280929190818152602001828054610e0890612222565b8015610e555780601f10610e2a57610100808354040283529160200191610e55565b820191906000526020600020905b815481529060010190602001808311610e3857829003601f168201915b505050505090806005018054610e6a90612222565b80601f0160208091040260200160405190810160405280929190818152602001828054610e9690612222565b8015610ee35780601f10610eb857610100808354040283529160200191610ee3565b820191906000526020600020905b815481529060010190602001808311610ec657829003601f168201915b5050505050905086565b610ef633610fd9565b610f35576040517f08c379a0000000000000000000000000000000000000000000000000000000008152600401610f2c90611f5d565b60405180910390fd5b610f3e81610fd9565b15610f7e576040517f08c379a0000000000000000000000000000000000000000000000000000000008152600401610f7590611f7d565b60405180910390fd5b6001600360008373ffffffffffffffffffffffffffffffffffffffff1673ffffffffffffffffffffffffffffffffffffffff16815260200190815260200160002060006101000a81548160ff02191690831515021790555050565b6000600360008373ffffffffffffffffffffffffffffffffffffffff1673ffffffffffffffffffffffffffffffffffffffff16815260200190815260200160002060009054906101000a900460ff169050919050565b61103833610fd9565b611077576040517f08c379a000000000000000000000000000000000000000000000000000000000815260040161106e90611f5d565b60405180910390fd5b60005b6000548110156112cb5786600282815481106110bf577f4e487b7100000000000000000000000000000000000000000000000000000000600052603260045260246000fd5b90600052602060002090600602016000015414156112b8578560028281548110611112577f4e487b7100000000000000000000000000000000000000000000000000000000600052603260045260246000fd5b90600052602060002090600602016001019080519060200190611136929190611691565b508460028281548110611172577f4e487b7100000000000000000000000000000000000000000000000000000000600052603260045260246000fd5b90600052602060002090600602016002019080519060200190611196929190611691565b5083600282815481106111d2577f4e487b7100000000000000000000000000000000000000000000000000000000600052603260045260246000fd5b906000526020600020906006020160030190805190602001906111f6929190611691565b508260028281548110611232577f4e487b7100000000000000000000000000000000000000000000000000000000600052603260045260246000fd5b90600052602060002090600602016004019080519060200190611256929190611691565b508160028281548110611292577f4e487b7100000000000000000000000000000000000000000000000000000000600052603260045260246000fd5b906000526020600020906006020160050190805190602001906112b6929190611691565b505b80806112c390612285565b91505061107a565b506040517f08c379a00000000000000000000000000000000000000000000000000000000081526004016112fe90611f1d565b60405180910390fd5b61131033610fd9565b61134f576040517f08c379a000000000000000000000000000000000000000000000000000000000815260040161134690611f5d565b60405180910390fd5b600080541161135d57600080fd5b60005b60005481101561168d5781600282815481106113a5577f4e487b7100000000000000000000000000000000000000000000000000000000600052603260045260246000fd5b906000526020600020906006020160000154141561167a57600260016000546113ce919061213a565b81548110611405577f4e487b7100000000000000000000000000000000000000000000000000000000600052603260045260246000fd5b90600052602060002090600602016002828154811061144d577f4e487b7100000000000000000000000000000000000000000000000000000000600052603260045260246000fd5b906000526020600020906006020160008201548160000155600182018160010190805461147990612222565b61148492919061174d565b50600282018160020190805461149990612222565b6114a492919061174d565b5060038201816003019080546114b990612222565b6114c492919061174d565b5060048201816004019080546114d990612222565b6114e492919061174d565b5060058201816005019080546114f990612222565b61150492919061174d565b5090505060026001600054611519919061213a565b81548110611550577f4e487b7100000000000000000000000000000000000000000000000000000000600052603260045260246000fd5b906000526020600020906006020160008082016000905560018201600061157791906117da565b60028201600061158791906117da565b60038201600061159791906117da565b6004820160006115a791906117da565b6005820160006115b791906117da565b50506000808154809291906115cb906121f8565b91905055506002805480611608577f4e487b7100000000000000000000000000000000000000000000000000000000600052603160045260246000fd5b600190038181906000526020600020906006020160008082016000905560018201600061163591906117da565b60028201600061164591906117da565b60038201600061165591906117da565b60048201600061166591906117da565b60058201600061167591906117da565b505090555b808061168590612285565b915050611360565b5050565b82805461169d90612222565b90600052602060002090601f0160209004810192826116bf5760008555611706565b82601f106116d857805160ff1916838001178555611706565b82800160010185558215611706579182015b828111156117055782518255916020019190600101906116ea565b5b509050611713919061181a565b5090565b6040518060c001604052806000815260200160608152602001606081526020016060815260200160608152602001606081525090565b82805461175990612222565b90600052602060002090601f01602090048101928261177b57600085556117c9565b82601f1061178c57805485556117c9565b828001600101855582156117c957600052602060002091601f016020900482015b828111156117c85782548255916001019190600101906117ad565b5b5090506117d6919061181a565b5090565b5080546117e690612222565b6000825580601f106117f85750611817565b601f016020900490600052602060002090810190611816919061181a565b5b50565b5b8082111561183357600081600090555060010161181b565b5090565b600061184a61184584612083565b61205e565b90508281526020810184848401111561186257600080fd5b61186d8482856121b6565b509392505050565b60008135905061188481612436565b92915050565b600082601f83011261189b57600080fd5b81356118ab848260208601611837565b91505092915050565b6000813590506118c38161244d565b92915050565b6000602082840312156118db57600080fd5b60006118e984828501611875565b91505092915050565b60006020828403121561190457600080fd5b600082013567ffffffffffffffff81111561191e57600080fd5b61192a8482850161188a565b91505092915050565b600080600080600060a0868803121561194b57600080fd5b600086013567ffffffffffffffff81111561196557600080fd5b6119718882890161188a565b955050602086013567ffffffffffffffff81111561198e57600080fd5b61199a8882890161188a565b945050604086013567ffffffffffffffff8111156119b757600080fd5b6119c38882890161188a565b935050606086013567ffffffffffffffff8111156119e057600080fd5b6119ec8882890161188a565b925050608086013567ffffffffffffffff811115611a0957600080fd5b611a158882890161188a565b9150509295509295909350565b600060208284031215611a3457600080fd5b6000611a42848285016118b4565b91505092915050565b60008060008060008060c08789031215611a6457600080fd5b6000611a7289828a016118b4565b965050602087013567ffffffffffffffff811115611a8f57600080fd5b611a9b89828a0161188a565b955050604087013567ffffffffffffffff811115611ab857600080fd5b611ac489828a0161188a565b945050606087013567ffffffffffffffff811115611ae157600080fd5b611aed89828a0161188a565b935050608087013567ffffffffffffffff811115611b0a57600080fd5b611b1689828a0161188a565b92505060a087013567ffffffffffffffff811115611b3357600080fd5b611b3f89828a0161188a565b9150509295509295509295565b6000611b588383611d61565b905092915050565b6000611b6b826120d9565b611b7581856120fc565b935083602082028501611b87856120b4565b8060005b85811015611bc35784840389528151611ba48582611b4c565b9450611baf836120ef565b925060208a01995050600181019050611b8b565b50829750879550505050505092915050565b611bde81612180565b82525050565b60008154611bf181612222565b611bfb818661210d565b94506001821660008114611c165760018114611c2757611c5a565b60ff19831686528186019350611c5a565b611c30856120c4565b60005b83811015611c5257815481890152600182019150602081019050611c33565b838801955050505b50505092915050565b6000611c6e826120e4565b611c788185612118565b9350611c888185602086016121c5565b611c918161235b565b840191505092915050565b6000611ca7826120e4565b611cb18185612129565b9350611cc18185602086016121c5565b611cca8161235b565b840191505092915050565b6000611ce2601283612129565b9150611ced8261236c565b602082019050919050565b6000611d05601683612129565b9150611d1082612395565b602082019050919050565b6000611d28602983612129565b9150611d33826123be565b604082019050919050565b6000611d4b601683612129565b9150611d568261240d565b602082019050919050565b600060c083016000830151611d796000860182611eab565b5060208301518482036020860152611d918282611c63565b91505060408301518482036040860152611dab8282611c63565b91505060608301518482036060860152611dc58282611c63565b91505060808301518482036080860152611ddf8282611c63565b91505060a083015184820360a0860152611df98282611c63565b9150508091505092915050565b600060c083016000830151611e1e6000860182611eab565b5060208301518482036020860152611e368282611c63565b91505060408301518482036040860152611e508282611c63565b91505060608301518482036060860152611e6a8282611c63565b91505060808301518482036080860152611e848282611c63565b91505060a083015184820360a0860152611e9e8282611c63565b9150508091505092915050565b611eb4816121ac565b82525050565b611ec3816121ac565b82525050565b6000611ed58284611be4565b915081905092915050565b60006020820190508181036000830152611efa8184611b60565b905092915050565b6000602082019050611f176000830184611bd5565b92915050565b60006020820190508181036000830152611f3681611cd5565b9050919050565b60006020820190508181036000830152611f5681611cf8565b9050919050565b60006020820190508181036000830152611f7681611d1b565b9050919050565b60006020820190508181036000830152611f9681611d3e565b9050919050565b60006020820190508181036000830152611fb78184611e06565b905092915050565b6000602082019050611fd46000830184611eba565b92915050565b600060c082019050611fef6000830189611eba565b81810360208301526120018188611c9c565b905081810360408301526120158187611c9c565b905081810360608301526120298186611c9c565b9050818103608083015261203d8185611c9c565b905081810360a08301526120518184611c9c565b9050979650505050505050565b6000612068612079565b90506120748282612254565b919050565b6000604051905090565b600067ffffffffffffffff82111561209e5761209d61232c565b5b6120a78261235b565b9050602081019050919050565b6000819050602082019050919050565b60008190508160005260206000209050919050565b600081519050919050565b600081519050919050565b6000602082019050919050565b600082825260208201905092915050565b600081905092915050565b600082825260208201905092915050565b600082825260208201905092915050565b6000612145826121ac565b9150612150836121ac565b925082821015612163576121626122ce565b5b828203905092915050565b60006121798261218c565b9050919050565b60008115159050919050565b600073ffffffffffffffffffffffffffffffffffffffff82169050919050565b6000819050919050565b82818337600083830152505050565b60005b838110156121e35780820151818401526020810190506121c8565b838111156121f2576000848401525b50505050565b6000612203826121ac565b91506000821415612217576122166122ce565b5b600182039050919050565b6000600282049050600182168061223a57607f821691505b6020821081141561224e5761224d6122fd565b5b50919050565b61225d8261235b565b810181811067ffffffffffffffff8211171561227c5761227b61232c565b5b80604052505050565b6000612290826121ac565b91507fffffffffffffffffffffffffffffffffffffffffffffffffffffffffffffffff8214156122c3576122c26122ce565b5b600182019050919050565b7f4e487b7100000000000000000000000000000000000000000000000000000000600052601160045260246000fd5b7f4e487b7100000000000000000000000000000000000000000000000000000000600052602260045260246000fd5b7f4e487b7100000000000000000000000000000000000000000000000000000000600052604160045260246000fd5b6000601f19601f8301169050919050565b7f50726f64756374206e6f7420666f756e64210000000000000000000000000000600082015250565b7f50726f6475637420616c72656164792065786973743100000000000000000000600082015250565b7f546869732066756e6374696f6e206973207265737472696374656420746f207460008201527f68652061646d696e2e0000000000000000000000000000000000000000000000602082015250565b7f4163636f756e7420616c72656164792065786973742e00000000000000000000600082015250565b61243f8161216e565b811461244a57600080fd5b50565b612456816121ac565b811461246157600080fd5b5056fea26469706673582212206cc30397c738eeea51ea087975649ed89a01284916e74ae4d8cdf4a9af723ce564736f6c63430008010033",
  "immutableReferences": {},
  "source": "// SPDX-License-Identifier: MIT\r\npragma solidity >=0.4.22 <0.9.0;\r\n\r\ncontract Catalog{\r\n    uint256 public totalProduct;\r\n    uint256 private idCount;\r\n\r\n    struct Product{\r\n        uint256 id;\r\n        string brandName;\r\n        string genericName;\r\n        string form;\r\n        string strength;\r\n        string packaging;\r\n    }\r\n\r\n    Product[] public all_products;\r\n    mapping(address => bool) private allowed_accounts;\r\n\r\n    constructor() public {\r\n        allowed_accounts[msg.sender] = true;\r\n        totalProduct = 0;\r\n        idCount = 1;\r\n    }\r\n\r\n    modifier restricted() {\r\n        require(approved(msg.sender),\"This function is restricted to the admin.\");\r\n        _;\r\n    }\r\n    function approved(address acc) public view returns (bool){\r\n        return allowed_accounts[acc];\r\n    }\r\n    function registerAdmin(address acc) public restricted{\r\n       require(!approved(acc),\"Account already exist.\");\r\n        allowed_accounts[acc] = true;\r\n    }\r\n    function read() public view returns (Product[] memory){\r\n        \r\n        return all_products;\r\n    }\r\n    function search(string memory _name) public view returns (Product memory){\r\n        for( uint256 i = 0;i<totalProduct;i++){\r\n            string memory _pname = all_products[i].brandName;\r\n            if(keccak256(bytes(_name)) == keccak256(bytes(_pname))){\r\n                return all_products[i];\r\n            }\r\n        }\r\n        revert(\"Product not found!\");\r\n    }\r\n\r\n    function newProduct(string memory _brandName,string memory _genericName,string memory _form,string memory _strength,string memory _packaging) public restricted{\r\n        for(uint256 i = 0 ; i < totalProduct ;i++){\r\n            if(keccak256(bytes(_brandName))==keccak256(bytes(all_products[i].brandName))){\r\n                revert(\"Product already exist1\");\r\n            }\r\n        }\r\n        all_products.push(Product(idCount,_brandName,_genericName,_form,_strength,_packaging));\r\n        totalProduct++;\r\n        idCount++;\r\n    }\r\n\r\n    function updateProduct(uint256 _id,string memory _brandName,string memory _genericName,string memory _form,string memory _strength,string memory _packaging) public restricted{\r\n        for (uint256 i = 0; i < totalProduct; i++) {\r\n            if(all_products[i].id == _id){\r\n                all_products[i].brandName = _brandName;\r\n                all_products[i].genericName = _genericName;\r\n                all_products[i].form = _form;\r\n                all_products[i].strength = _strength;\r\n                all_products[i].packaging = _packaging;\r\n            }\r\n        }\r\n        revert(\"Product not found!\");\r\n    }\r\n    function deleteProduct(uint256 _id) public restricted{\r\n        require(totalProduct > 0);\r\n        for (uint256 i = 0; i < totalProduct; i++) {\r\n            if(all_products[i].id == _id){\r\n                all_products[i] = all_products[totalProduct-1];\r\n                delete all_products[totalProduct-1];\r\n                totalProduct--;\r\n                all_products.pop();\r\n            }\r\n        }\r\n    }\r\n}",
  "sourcePath": "C:/Cryptocurrency/catalog/contracts/Catalog.sol",
  "compiler": {
    "name": "solc",
    "version": "0.8.1+commit.df193b15.Emscripten.clang"
  },
  "schemaVersion": "3.3.4",
  "updatedAt": "2021-04-19T03:49:31.781Z",
  "networkType": "ethereum",
  "devdoc": {
    "kind": "dev",
    "methods": {},
    "version": 1
  },
  "userdoc": {
    "kind": "user",
    "methods": {},
    "version": 1
  }
}