{
  "contractName": "Catalog",
  "abi": [
    {
      "inputs": [],
      "stateMutability": "nonpayable",
      "type": "constructor"
    },
    {
      "inputs": [
        {
          "internalType": "uint256",
          "name": "",
          "type": "uint256"
        }
      ],
      "name": "all_products",
      "outputs": [
        {
          "internalType": "uint256",
          "name": "id",
          "type": "uint256"
        },
        {
          "internalType": "string",
          "name": "brandName",
          "type": "string"
        },
        {
          "internalType": "string",
          "name": "genericName",
          "type": "string"
        },
        {
          "internalType": "string",
          "name": "form",
          "type": "string"
        },
        {
          "internalType": "string",
          "name": "strength",
          "type": "string"
        },
        {
          "internalType": "string",
          "name": "packaging",
          "type": "string"
        }
      ],
      "stateMutability": "view",
      "type": "function",
      "constant": true
    },
    {
      "inputs": [],
      "name": "totalProduct",
      "outputs": [
        {
          "internalType": "uint256",
          "name": "",
          "type": "uint256"
        }
      ],
      "stateMutability": "view",
      "type": "function",
      "constant": true
    },
    {
      "inputs": [
        {
          "internalType": "address",
          "name": "acc",
          "type": "address"
        }
      ],
      "name": "approved",
      "outputs": [
        {
          "internalType": "bool",
          "name": "",
          "type": "bool"
        }
      ],
      "stateMutability": "view",
      "type": "function",
      "constant": true
    },
    {
      "inputs": [
        {
          "internalType": "address",
          "name": "acc",
          "type": "address"
        }
      ],
      "name": "registerAdmin",
      "outputs": [],
      "stateMutability": "nonpayable",
      "type": "function"
    },
    {
      "inputs": [],
      "name": "read",
      "outputs": [
        {
          "components": [
            {
              "internalType": "uint256",
              "name": "id",
              "type": "uint256"
            },
            {
              "internalType": "string",
              "name": "brandName",
              "type": "string"
            },
            {
              "internalType": "string",
              "name": "genericName",
              "type": "string"
            },
            {
              "internalType": "string",
              "name": "form",
              "type": "string"
            },
            {
              "internalType": "string",
              "name": "strength",
              "type": "string"
            },
            {
              "internalType": "string",
              "name": "packaging",
              "type": "string"
            }
          ],
          "internalType": "struct Catalog.Product[]",
          "name": "",
          "type": "tuple[]"
        }
      ],
      "stateMutability": "view",
      "type": "function",
      "constant": true
    },
    {
      "inputs": [
        {
          "internalType": "string",
          "name": "_name",
          "type": "string"
        }
      ],
      "name": "search",
      "outputs": [
        {
          "components": [
            {
              "internalType": "uint256",
              "name": "id",
              "type": "uint256"
            },
            {
              "internalType": "string",
              "name": "brandName",
              "type": "string"
            },
            {
              "internalType": "string",
              "name": "genericName",
              "type": "string"
            },
            {
              "internalType": "string",
              "name": "form",
              "type": "string"
            },
            {
              "internalType": "string",
              "name": "strength",
              "type": "string"
            },
            {
              "internalType": "string",
              "name": "packaging",
              "type": "string"
            }
          ],
          "internalType": "struct Catalog.Product",
          "name": "",
          "type": "tuple"
        }
      ],
      "stateMutability": "view",
      "type": "function",
      "constant": true
    },
    {
      "inputs": [
        {
          "internalType": "string",
          "name": "_brandName",
          "type": "string"
        },
        {
          "internalType": "string",
          "name": "_genericName",
          "type": "string"
        },
        {
          "internalType": "string",
          "name": "_form",
          "type": "string"
        },
        {
          "internalType": "string",
          "name": "_strength",
          "type": "string"
        },
        {
          "internalType": "string",
          "name": "_packaging",
          "type": "string"
        }
      ],
      "name": "newProduct",
      "outputs": [],
      "stateMutability": "nonpayable",
      "type": "function"
    },
    {
      "inputs": [
        {
          "internalType": "uint256",
          "name": "_id",
          "type": "uint256"
        },
        {
          "internalType": "string",
          "name": "_brandName",
          "type": "string"
        },
        {
          "internalType": "string",
          "name": "_genericName",
          "type": "string"
        },
        {
          "internalType": "string",
          "name": "_form",
          "type": "string"
        },
        {
          "internalType": "string",
          "name": "_strength",
          "type": "string"
        },
        {
          "internalType": "string",
          "name": "_packaging",
          "type": "string"
        }
      ],
      "name": "updateProduct",
      "outputs": [],
      "stateMutability": "nonpayable",
      "type": "function"
    },
    {
      "inputs": [
        {
          "internalType": "uint256",
          "name": "_id",
          "type": "uint256"
        }
      ],
      "name": "deleteProduct",
      "outputs": [],
      "stateMutability": "nonpayable",
      "type": "function"
    }
  ],
  "bytecode": "0x608060405234801561001057600080fd5b506001600360003373ffffffffffffffffffffffffffffffffffffffff1673ffffffffffffffffffffffffffffffffffffffff16815260200190815260200160002060006101000a81548160ff02191690831515021790555060008081905550600180819055506122ae806100866000396000f3fe608060405234801561001057600080fd5b50600436106100935760003560e01c806395bb77e31161006657806395bb77e314610120578063c38c581314610155578063d8b964e614610171578063da6ca58c146101a1578063ed90c7b7146101bd57610093565b80631539cabd14610098578063566bceef146100b457806357de26a4146100d2578063820ed086146100f0575b600080fd5b6100b260048036038101906100ad9190611869565b6101d9565b005b6100bc61034e565b6040516100c99190611e1c565b60405180910390f35b6100da610354565b6040516100e79190611d5d565b60405180910390f35b61010a60048036038101906101059190611828565b610697565b6040516101179190611dfa565b60405180910390f35b61013a60048036038101906101359190611958565b610b2f565b60405161014c96959493929190611e37565b60405180910390f35b61016f600480360381019061016a91906117ff565b610e23565b005b61018b600480360381019061018691906117ff565b610f0f565b6040516101989190611d7f565b60405180910390f35b6101bb60048036038101906101b69190611981565b610f65565b005b6101d760048036038101906101d29190611958565b61123d565b005b6101e233610f0f565b610221576040517f08c379a000000000000000000000000000000000000000000000000000000000815260040161021890611dba565b60405180910390fd5b60026040518060c0016040528060015481526020018781526020018681526020018581526020018481526020018381525090806001815401808255809150506001900390600052602060002090600602016000909190919091506000820151816000015560208201518160010190805190602001906102a19291906115c7565b5060408201518160020190805190602001906102be9291906115c7565b5060608201518160030190805190602001906102db9291906115c7565b5060808201518160040190805190602001906102f89291906115c7565b5060a08201518160050190805190602001906103159291906115c7565b50505060008081548092919061032a906120c2565b919050555060016000815480929190610342906120c2565b91905055505050505050565b60005481565b60606002805480602002602001604051908101604052809291908181526020016000905b8282101561068e57838290600052602060002090600602016040518060c0016040529081600082015481526020016001820180546103b59061205f565b80601f01602080910402602001604051908101604052809291908181526020018280546103e19061205f565b801561042e5780601f106104035761010080835404028352916020019161042e565b820191906000526020600020905b81548152906001019060200180831161041157829003601f168201915b505050505081526020016002820180546104479061205f565b80601f01602080910402602001604051908101604052809291908181526020018280546104739061205f565b80156104c05780601f10610495576101008083540402835291602001916104c0565b820191906000526020600020905b8154815290600101906020018083116104a357829003601f168201915b505050505081526020016003820180546104d99061205f565b80601f01602080910402602001604051908101604052809291908181526020018280546105059061205f565b80156105525780601f1061052757610100808354040283529160200191610552565b820191906000526020600020905b81548152906001019060200180831161053557829003601f168201915b5050505050815260200160048201805461056b9061205f565b80601f01602080910402602001604051908101604052809291908181526020018280546105979061205f565b80156105e45780601f106105b9576101008083540402835291602001916105e4565b820191906000526020600020905b8154815290600101906020018083116105c757829003601f168201915b505050505081526020016005820180546105fd9061205f565b80601f01602080910402602001604051908101604052809291908181526020018280546106299061205f565b80156106765780601f1061064b57610100808354040283529160200191610676565b820191906000526020600020905b81548152906001019060200180831161065957829003601f168201915b50505050508152505081526020019060010190610378565b50505050905090565b61069f61164d565b60005b600054811015610aee576000600282815481106106e8577f4e487b7100000000000000000000000000000000000000000000000000000000600052603260045260246000fd5b906000526020600020906006020160010180546107049061205f565b80601f01602080910402602001604051908101604052809291908181526020018280546107309061205f565b801561077d5780601f106107525761010080835404028352916020019161077d565b820191906000526020600020905b81548152906001019060200180831161076057829003601f168201915b50505050509050808051906020012084805190602001201415610ada57600282815481106107d4577f4e487b7100000000000000000000000000000000000000000000000000000000600052603260045260246000fd5b90600052602060002090600602016040518060c0016040529081600082015481526020016001820180546108079061205f565b80601f01602080910402602001604051908101604052809291908181526020018280546108339061205f565b80156108805780601f1061085557610100808354040283529160200191610880565b820191906000526020600020905b81548152906001019060200180831161086357829003601f168201915b505050505081526020016002820180546108999061205f565b80601f01602080910402602001604051908101604052809291908181526020018280546108c59061205f565b80156109125780601f106108e757610100808354040283529160200191610912565b820191906000526020600020905b8154815290600101906020018083116108f557829003601f168201915b5050505050815260200160038201805461092b9061205f565b80601f01602080910402602001604051908101604052809291908181526020018280546109579061205f565b80156109a45780601f10610979576101008083540402835291602001916109a4565b820191906000526020600020905b81548152906001019060200180831161098757829003601f168201915b505050505081526020016004820180546109bd9061205f565b80601f01602080910402602001604051908101604052809291908181526020018280546109e99061205f565b8015610a365780601f10610a0b57610100808354040283529160200191610a36565b820191906000526020600020905b815481529060010190602001808311610a1957829003601f168201915b50505050508152602001600582018054610a4f9061205f565b80601f0160208091040260200160405190810160405280929190818152602001828054610a7b9061205f565b8015610ac85780601f10610a9d57610100808354040283529160200191610ac8565b820191906000526020600020905b815481529060010190602001808311610aab57829003601f168201915b50505050508152505092505050610b2a565b508080610ae6906120c2565b9150506106a2565b506040517f08c379a0000000000000000000000000000000000000000000000000000000008152600401610b2190611d9a565b60405180910390fd5b919050565b60028181548110610b3f57600080fd5b9060005260206000209060060201600091509050806000015490806001018054610b689061205f565b80601f0160208091040260200160405190810160405280929190818152602001828054610b949061205f565b8015610be15780601f10610bb657610100808354040283529160200191610be1565b820191906000526020600020905b815481529060010190602001808311610bc457829003601f168201915b505050505090806002018054610bf69061205f565b80601f0160208091040260200160405190810160405280929190818152602001828054610c229061205f565b8015610c6f5780601f10610c4457610100808354040283529160200191610c6f565b820191906000526020600020905b815481529060010190602001808311610c5257829003601f168201915b505050505090806003018054610c849061205f565b80601f0160208091040260200160405190810160405280929190818152602001828054610cb09061205f565b8015610cfd5780601f10610cd257610100808354040283529160200191610cfd565b820191906000526020600020905b815481529060010190602001808311610ce057829003601f168201915b505050505090806004018054610d129061205f565b80601f0160208091040260200160405190810160405280929190818152602001828054610d3e9061205f565b8015610d8b5780601f10610d6057610100808354040283529160200191610d8b565b820191906000526020600020905b815481529060010190602001808311610d6e57829003601f168201915b505050505090806005018054610da09061205f565b80601f0160208091040260200160405190810160405280929190818152602001828054610dcc9061205f565b8015610e195780601f10610dee57610100808354040283529160200191610e19565b820191906000526020600020905b815481529060010190602001808311610dfc57829003601f168201915b5050505050905086565b610e2c33610f0f565b610e6b576040517f08c379a0000000000000000000000000000000000000000000000000000000008152600401610e6290611dba565b60405180910390fd5b610e7481610f0f565b15610eb4576040517f08c379a0000000000000000000000000000000000000000000000000000000008152600401610eab90611dda565b60405180910390fd5b6001600360008373ffffffffffffffffffffffffffffffffffffffff1673ffffffffffffffffffffffffffffffffffffffff16815260200190815260200160002060006101000a81548160ff02191690831515021790555050565b6000600360008373ffffffffffffffffffffffffffffffffffffffff1673ffffffffffffffffffffffffffffffffffffffff16815260200190815260200160002060009054906101000a900460ff169050919050565b610f6e33610f0f565b610fad576040517f08c379a0000000000000000000000000000000000000000000000000000000008152600401610fa490611dba565b60405180910390fd5b60005b600054811015611201578660028281548110610ff5577f4e487b7100000000000000000000000000000000000000000000000000000000600052603260045260246000fd5b90600052602060002090600602016000015414156111ee578560028281548110611048577f4e487b7100000000000000000000000000000000000000000000000000000000600052603260045260246000fd5b9060005260206000209060060201600101908051906020019061106c9291906115c7565b5084600282815481106110a8577f4e487b7100000000000000000000000000000000000000000000000000000000600052603260045260246000fd5b906000526020600020906006020160020190805190602001906110cc9291906115c7565b508360028281548110611108577f4e487b7100000000000000000000000000000000000000000000000000000000600052603260045260246000fd5b9060005260206000209060060201600301908051906020019061112c9291906115c7565b508260028281548110611168577f4e487b7100000000000000000000000000000000000000000000000000000000600052603260045260246000fd5b9060005260206000209060060201600401908051906020019061118c9291906115c7565b5081600282815481106111c8577f4e487b7100000000000000000000000000000000000000000000000000000000600052603260045260246000fd5b906000526020600020906006020160050190805190602001906111ec9291906115c7565b505b80806111f9906120c2565b915050610fb0565b506040517f08c379a000000000000000000000000000000000000000000000000000000000815260040161123490611d9a565b60405180910390fd5b61124633610f0f565b611285576040517f08c379a000000000000000000000000000000000000000000000000000000000815260040161127c90611dba565b60405180910390fd5b600080541161129357600080fd5b60005b6000548110156115c35781600282815481106112db577f4e487b7100000000000000000000000000000000000000000000000000000000600052603260045260246000fd5b90600052602060002090600602016000015414156115b057600260016000546113049190611f77565b8154811061133b577f4e487b7100000000000000000000000000000000000000000000000000000000600052603260045260246000fd5b906000526020600020906006020160028281548110611383577f4e487b7100000000000000000000000000000000000000000000000000000000600052603260045260246000fd5b90600052602060002090600602016000820154816000015560018201816001019080546113af9061205f565b6113ba929190611683565b5060028201816002019080546113cf9061205f565b6113da929190611683565b5060038201816003019080546113ef9061205f565b6113fa929190611683565b50600482018160040190805461140f9061205f565b61141a929190611683565b50600582018160050190805461142f9061205f565b61143a929190611683565b509050506002600160005461144f9190611f77565b81548110611486577f4e487b7100000000000000000000000000000000000000000000000000000000600052603260045260246000fd5b90600052602060002090600602016000808201600090556001820160006114ad9190611710565b6002820160006114bd9190611710565b6003820160006114cd9190611710565b6004820160006114dd9190611710565b6005820160006114ed9190611710565b505060008081548092919061150190612035565b9190505550600280548061153e577f4e487b7100000000000000000000000000000000000000000000000000000000600052603160045260246000fd5b600190038181906000526020600020906006020160008082016000905560018201600061156b9190611710565b60028201600061157b9190611710565b60038201600061158b9190611710565b60048201600061159b9190611710565b6005820160006115ab9190611710565b505090555b80806115bb906120c2565b915050611296565b5050565b8280546115d39061205f565b90600052602060002090601f0160209004810192826115f5576000855561163c565b82601f1061160e57805160ff191683800117855561163c565b8280016001018555821561163c579182015b8281111561163b578251825591602001919060010190611620565b5b5090506116499190611750565b5090565b6040518060c001604052806000815260200160608152602001606081526020016060815260200160608152602001606081525090565b82805461168f9061205f565b90600052602060002090601f0160209004810192826116b157600085556116ff565b82601f106116c257805485556116ff565b828001600101855582156116ff57600052602060002091601f016020900482015b828111156116fe5782548255916001019190600101906116e3565b5b50905061170c9190611750565b5090565b50805461171c9061205f565b6000825580601f1061172e575061174d565b601f01602090049060005260206000209081019061174c9190611750565b5b50565b5b80821115611769576000816000905550600101611751565b5090565b600061178061177b84611ee0565b611ebb565b90508281526020810184848401111561179857600080fd5b6117a3848285611ff3565b509392505050565b6000813590506117ba8161224a565b92915050565b600082601f8301126117d157600080fd5b81356117e184826020860161176d565b91505092915050565b6000813590506117f981612261565b92915050565b60006020828403121561181157600080fd5b600061181f848285016117ab565b91505092915050565b60006020828403121561183a57600080fd5b600082013567ffffffffffffffff81111561185457600080fd5b611860848285016117c0565b91505092915050565b600080600080600060a0868803121561188157600080fd5b600086013567ffffffffffffffff81111561189b57600080fd5b6118a7888289016117c0565b955050602086013567ffffffffffffffff8111156118c457600080fd5b6118d0888289016117c0565b945050604086013567ffffffffffffffff8111156118ed57600080fd5b6118f9888289016117c0565b935050606086013567ffffffffffffffff81111561191657600080fd5b611922888289016117c0565b925050608086013567ffffffffffffffff81111561193f57600080fd5b61194b888289016117c0565b9150509295509295909350565b60006020828403121561196a57600080fd5b6000611978848285016117ea565b91505092915050565b60008060008060008060c0878903121561199a57600080fd5b60006119a889828a016117ea565b965050602087013567ffffffffffffffff8111156119c557600080fd5b6119d189828a016117c0565b955050604087013567ffffffffffffffff8111156119ee57600080fd5b6119fa89828a016117c0565b945050606087013567ffffffffffffffff811115611a1757600080fd5b611a2389828a016117c0565b935050608087013567ffffffffffffffff811115611a4057600080fd5b611a4c89828a016117c0565b92505060a087013567ffffffffffffffff811115611a6957600080fd5b611a7589828a016117c0565b9150509295509295509295565b6000611a8e8383611bf5565b905092915050565b6000611aa182611f21565b611aab8185611f44565b935083602082028501611abd85611f11565b8060005b85811015611af95784840389528151611ada8582611a82565b9450611ae583611f37565b925060208a01995050600181019050611ac1565b50829750879550505050505092915050565b611b1481611fbd565b82525050565b6000611b2582611f2c565b611b2f8185611f55565b9350611b3f818560208601612002565b611b4881612198565b840191505092915050565b6000611b5e82611f2c565b611b688185611f66565b9350611b78818560208601612002565b611b8181612198565b840191505092915050565b6000611b99601283611f66565b9150611ba4826121a9565b602082019050919050565b6000611bbc602983611f66565b9150611bc7826121d2565b604082019050919050565b6000611bdf601683611f66565b9150611bea82612221565b602082019050919050565b600060c083016000830151611c0d6000860182611d3f565b5060208301518482036020860152611c258282611b1a565b91505060408301518482036040860152611c3f8282611b1a565b91505060608301518482036060860152611c598282611b1a565b91505060808301518482036080860152611c738282611b1a565b91505060a083015184820360a0860152611c8d8282611b1a565b9150508091505092915050565b600060c083016000830151611cb26000860182611d3f565b5060208301518482036020860152611cca8282611b1a565b91505060408301518482036040860152611ce48282611b1a565b91505060608301518482036060860152611cfe8282611b1a565b91505060808301518482036080860152611d188282611b1a565b91505060a083015184820360a0860152611d328282611b1a565b9150508091505092915050565b611d4881611fe9565b82525050565b611d5781611fe9565b82525050565b60006020820190508181036000830152611d778184611a96565b905092915050565b6000602082019050611d946000830184611b0b565b92915050565b60006020820190508181036000830152611db381611b8c565b9050919050565b60006020820190508181036000830152611dd381611baf565b9050919050565b60006020820190508181036000830152611df381611bd2565b9050919050565b60006020820190508181036000830152611e148184611c9a565b905092915050565b6000602082019050611e316000830184611d4e565b92915050565b600060c082019050611e4c6000830189611d4e565b8181036020830152611e5e8188611b53565b90508181036040830152611e728187611b53565b90508181036060830152611e868186611b53565b90508181036080830152611e9a8185611b53565b905081810360a0830152611eae8184611b53565b9050979650505050505050565b6000611ec5611ed6565b9050611ed18282612091565b919050565b6000604051905090565b600067ffffffffffffffff821115611efb57611efa612169565b5b611f0482612198565b9050602081019050919050565b6000819050602082019050919050565b600081519050919050565b600081519050919050565b6000602082019050919050565b600082825260208201905092915050565b600082825260208201905092915050565b600082825260208201905092915050565b6000611f8282611fe9565b9150611f8d83611fe9565b925082821015611fa057611f9f61210b565b5b828203905092915050565b6000611fb682611fc9565b9050919050565b60008115159050919050565b600073ffffffffffffffffffffffffffffffffffffffff82169050919050565b6000819050919050565b82818337600083830152505050565b60005b83811015612020578082015181840152602081019050612005565b8381111561202f576000848401525b50505050565b600061204082611fe9565b915060008214156120545761205361210b565b5b600182039050919050565b6000600282049050600182168061207757607f821691505b6020821081141561208b5761208a61213a565b5b50919050565b61209a82612198565b810181811067ffffffffffffffff821117156120b9576120b8612169565b5b80604052505050565b60006120cd82611fe9565b91507fffffffffffffffffffffffffffffffffffffffffffffffffffffffffffffffff821415612100576120ff61210b565b5b600182019050919050565b7f4e487b7100000000000000000000000000000000000000000000000000000000600052601160045260246000fd5b7f4e487b7100000000000000000000000000000000000000000000000000000000600052602260045260246000fd5b7f4e487b7100000000000000000000000000000000000000000000000000000000600052604160045260246000fd5b6000601f19601f8301169050919050565b7f50726f64756374206e6f7420666f756e64210000000000000000000000000000600082015250565b7f546869732066756e6374696f6e206973207265737472696374656420746f207460008201527f68652061646d696e2e0000000000000000000000000000000000000000000000602082015250565b7f4163636f756e7420616c72656164792065786973742e00000000000000000000600082015250565b61225381611fab565b811461225e57600080fd5b50565b61226a81611fe9565b811461227557600080fd5b5056fea2646970667358221220235831a9c982163d82c407ac6e41408b0a685b584caaaf05a25edb05306aeee664736f6c63430008010033",
  "immutableReferences": {},
  "source": "// SPDX-License-Identifier: MIT\r\npragma solidity >=0.4.22 <0.9.0;\r\n\r\ncontract Catalog{\r\n    uint256 public totalProduct;\r\n    uint256 private idCount;\r\n\r\n    struct Product{\r\n        uint256 id;\r\n        string brandName;\r\n        string genericName;\r\n        string form;\r\n        string strength;\r\n        string packaging;\r\n    }\r\n\r\n    Product[] public all_products;\r\n    mapping(address => bool) private allowed_accounts;\r\n\r\n    constructor() public {\r\n        allowed_accounts[msg.sender] = true;\r\n        totalProduct = 0;\r\n        idCount = 1;\r\n    }\r\n\r\n    modifier restricted() {\r\n        require(approved(msg.sender),\"This function is restricted to the admin.\");\r\n        _;\r\n    }\r\n    function approved(address acc) public view returns (bool){\r\n        return allowed_accounts[acc];\r\n    }\r\n    function registerAdmin(address acc) public restricted{\r\n       require(!approved(acc),\"Account already exist.\");\r\n        allowed_accounts[acc] = true;\r\n    }\r\n    function read() public view returns (Product[] memory){\r\n        return all_products;\r\n    }\r\n    function search(string memory _name) public view returns (Product memory){\r\n        for( uint256 i = 0;i<totalProduct;i++){\r\n            string memory _pname = all_products[i].brandName;\r\n            if(keccak256(bytes(_name)) == keccak256(bytes(_pname))){\r\n                return all_products[i];\r\n            }\r\n        }\r\n        revert(\"Product not found!\");\r\n    }\r\n\r\n    function newProduct(string memory _brandName,string memory _genericName,string memory _form,string memory _strength,string memory _packaging) public restricted{\r\n        all_products.push(Product(idCount,_brandName,_genericName,_form,_strength,_packaging));\r\n        totalProduct++;\r\n        idCount++;\r\n    }\r\n\r\n    function updateProduct(uint256 _id,string memory _brandName,string memory _genericName,string memory _form,string memory _strength,string memory _packaging) public restricted{\r\n        for (uint256 i = 0; i < totalProduct; i++) {\r\n            if(all_products[i].id == _id){\r\n                all_products[i].brandName = _brandName;\r\n                all_products[i].genericName = _genericName;\r\n                all_products[i].form = _form;\r\n                all_products[i].strength = _strength;\r\n                all_products[i].packaging = _packaging;\r\n            }\r\n        }\r\n        revert(\"Product not found!\");\r\n    }\r\n    function deleteProduct(uint256 _id) public restricted{\r\n        require(totalProduct > 0);\r\n        for (uint256 i = 0; i < totalProduct; i++) {\r\n            if(all_products[i].id == _id){\r\n                all_products[i] = all_products[totalProduct-1];\r\n                delete all_products[totalProduct-1];\r\n                totalProduct--;\r\n                all_products.pop();\r\n            }\r\n        }\r\n    }\r\n}",
  "sourcePath": "C:/Cryptocurrency/catalog/contracts/Catalog.sol",
  "compiler": {
    "name": "solc",
    "version": "0.8.1+commit.df193b15.Emscripten.clang"
  },
  "schemaVersion": "3.3.4",
  "updatedAt": "2021-04-16T13:54:53.706Z",
  "networkType": "ethereum",
  "devdoc": {
    "kind": "dev",
    "methods": {},
    "version": 1
  },
  "userdoc": {
    "kind": "user",
    "methods": {},
    "version": 1
  }
}