{
  "contractName": "Catalog",
  "abi": [
    {
      "inputs": [],
      "stateMutability": "nonpayable",
      "type": "constructor"
    },
    {
      "inputs": [
        {
          "internalType": "uint256",
          "name": "",
          "type": "uint256"
        }
      ],
      "name": "all_products",
      "outputs": [
        {
          "internalType": "uint256",
          "name": "id",
          "type": "uint256"
        },
        {
          "internalType": "string",
          "name": "brandName",
          "type": "string"
        },
        {
          "internalType": "string",
          "name": "genericName",
          "type": "string"
        },
        {
          "internalType": "string",
          "name": "form",
          "type": "string"
        },
        {
          "internalType": "string",
          "name": "strength",
          "type": "string"
        },
        {
          "internalType": "string",
          "name": "packaging",
          "type": "string"
        }
      ],
      "stateMutability": "view",
      "type": "function"
    },
    {
      "inputs": [],
      "name": "totalProduct",
      "outputs": [
        {
          "internalType": "uint256",
          "name": "",
          "type": "uint256"
        }
      ],
      "stateMutability": "view",
      "type": "function"
    },
    {
      "inputs": [],
      "name": "read",
      "outputs": [
        {
          "components": [
            {
              "internalType": "uint256",
              "name": "id",
              "type": "uint256"
            },
            {
              "internalType": "string",
              "name": "brandName",
              "type": "string"
            },
            {
              "internalType": "string",
              "name": "genericName",
              "type": "string"
            },
            {
              "internalType": "string",
              "name": "form",
              "type": "string"
            },
            {
              "internalType": "string",
              "name": "strength",
              "type": "string"
            },
            {
              "internalType": "string",
              "name": "packaging",
              "type": "string"
            }
          ],
          "internalType": "struct Catalog.Product[]",
          "name": "",
          "type": "tuple[]"
        }
      ],
      "stateMutability": "view",
      "type": "function"
    },
    {
      "inputs": [
        {
          "internalType": "string",
          "name": "_name",
          "type": "string"
        }
      ],
      "name": "search",
      "outputs": [
        {
          "components": [
            {
              "internalType": "uint256",
              "name": "id",
              "type": "uint256"
            },
            {
              "internalType": "string",
              "name": "brandName",
              "type": "string"
            },
            {
              "internalType": "string",
              "name": "genericName",
              "type": "string"
            },
            {
              "internalType": "string",
              "name": "form",
              "type": "string"
            },
            {
              "internalType": "string",
              "name": "strength",
              "type": "string"
            },
            {
              "internalType": "string",
              "name": "packaging",
              "type": "string"
            }
          ],
          "internalType": "struct Catalog.Product",
          "name": "",
          "type": "tuple"
        }
      ],
      "stateMutability": "view",
      "type": "function"
    },
    {
      "inputs": [
        {
          "internalType": "string",
          "name": "_brandName",
          "type": "string"
        },
        {
          "internalType": "string",
          "name": "_genericName",
          "type": "string"
        },
        {
          "internalType": "string",
          "name": "_form",
          "type": "string"
        },
        {
          "internalType": "string",
          "name": "_strength",
          "type": "string"
        },
        {
          "internalType": "string",
          "name": "_packaging",
          "type": "string"
        }
      ],
      "name": "newProduct",
      "outputs": [],
      "stateMutability": "nonpayable",
      "type": "function"
    },
    {
      "inputs": [
        {
          "internalType": "uint256",
          "name": "_id",
          "type": "uint256"
        },
        {
          "internalType": "string",
          "name": "_brandName",
          "type": "string"
        },
        {
          "internalType": "string",
          "name": "_genericName",
          "type": "string"
        },
        {
          "internalType": "string",
          "name": "_form",
          "type": "string"
        },
        {
          "internalType": "string",
          "name": "_strength",
          "type": "string"
        },
        {
          "internalType": "string",
          "name": "_packaging",
          "type": "string"
        }
      ],
      "name": "updateProduct",
      "outputs": [],
      "stateMutability": "nonpayable",
      "type": "function"
    },
    {
      "inputs": [
        {
          "internalType": "uint256",
          "name": "_id",
          "type": "uint256"
        }
      ],
      "name": "deleteProduct",
      "outputs": [],
      "stateMutability": "nonpayable",
      "type": "function"
    }
  ],
  "bytecode": "0x608060405234801561001057600080fd5b50336000806101000a81548173ffffffffffffffffffffffffffffffffffffffff021916908373ffffffffffffffffffffffffffffffffffffffff160217905550600060018190555060016002819055506120b4806100706000396000f3fe608060405234801561001057600080fd5b506004361061007d5760003560e01c8063820ed0861161005b578063820ed086146100da57806395bb77e31461010a578063da6ca58c1461013f578063ed90c7b71461015b5761007d565b80631539cabd14610082578063566bceef1461009e57806357de26a4146100bc575b600080fd5b61009c6004803603810190610097919061175a565b610177565b005b6100a6610333565b6040516100b39190611ca0565b60405180910390f35b6100c4610339565b6040516100d19190611c1c565b60405180910390f35b6100f460048036038101906100ef9190611719565b61067c565b6040516101019190611c7e565b60405180910390f35b610124600480360381019061011f9190611849565b610b14565b60405161013696959493929190611cbb565b60405180910390f35b61015960048036038101906101549190611872565b610e08565b005b61017560048036038101906101709190611849565b611126565b005b60008054906101000a900473ffffffffffffffffffffffffffffffffffffffff1673ffffffffffffffffffffffffffffffffffffffff163373ffffffffffffffffffffffffffffffffffffffff1614610205576040517f08c379a00000000000000000000000000000000000000000000000000000000081526004016101fc90611c5e565b60405180910390fd5b60036040518060c0016040528060025481526020018781526020018681526020018581526020018481526020018381525090806001815401808255809150506001900390600052602060002090600602016000909190919091506000820151816000015560208201518160010190805190602001906102859291906114f6565b5060408201518160020190805190602001906102a29291906114f6565b5060608201518160030190805190602001906102bf9291906114f6565b5060808201518160040190805190602001906102dc9291906114f6565b5060a08201518160050190805190602001906102f99291906114f6565b5050506001600081548092919061030f90611f08565b91905055506002600081548092919061032790611f08565b91905055505050505050565b60015481565b60606003805480602002602001604051908101604052809291908181526020016000905b8282101561067357838290600052602060002090600602016040518060c00160405290816000820154815260200160018201805461039a90611ea5565b80601f01602080910402602001604051908101604052809291908181526020018280546103c690611ea5565b80156104135780601f106103e857610100808354040283529160200191610413565b820191906000526020600020905b8154815290600101906020018083116103f657829003601f168201915b5050505050815260200160028201805461042c90611ea5565b80601f016020809104026020016040519081016040528092919081815260200182805461045890611ea5565b80156104a55780601f1061047a576101008083540402835291602001916104a5565b820191906000526020600020905b81548152906001019060200180831161048857829003601f168201915b505050505081526020016003820180546104be90611ea5565b80601f01602080910402602001604051908101604052809291908181526020018280546104ea90611ea5565b80156105375780601f1061050c57610100808354040283529160200191610537565b820191906000526020600020905b81548152906001019060200180831161051a57829003601f168201915b5050505050815260200160048201805461055090611ea5565b80601f016020809104026020016040519081016040528092919081815260200182805461057c90611ea5565b80156105c95780601f1061059e576101008083540402835291602001916105c9565b820191906000526020600020905b8154815290600101906020018083116105ac57829003601f168201915b505050505081526020016005820180546105e290611ea5565b80601f016020809104026020016040519081016040528092919081815260200182805461060e90611ea5565b801561065b5780601f106106305761010080835404028352916020019161065b565b820191906000526020600020905b81548152906001019060200180831161063e57829003601f168201915b5050505050815250508152602001906001019061035d565b50505050905090565b61068461157c565b60005b600154811015610ad3576000600382815481106106cd577f4e487b7100000000000000000000000000000000000000000000000000000000600052603260045260246000fd5b906000526020600020906006020160010180546106e990611ea5565b80601f016020809104026020016040519081016040528092919081815260200182805461071590611ea5565b80156107625780601f1061073757610100808354040283529160200191610762565b820191906000526020600020905b81548152906001019060200180831161074557829003601f168201915b50505050509050808051906020012084805190602001201415610abf57600382815481106107b9577f4e487b7100000000000000000000000000000000000000000000000000000000600052603260045260246000fd5b90600052602060002090600602016040518060c0016040529081600082015481526020016001820180546107ec90611ea5565b80601f016020809104026020016040519081016040528092919081815260200182805461081890611ea5565b80156108655780601f1061083a57610100808354040283529160200191610865565b820191906000526020600020905b81548152906001019060200180831161084857829003601f168201915b5050505050815260200160028201805461087e90611ea5565b80601f01602080910402602001604051908101604052809291908181526020018280546108aa90611ea5565b80156108f75780601f106108cc576101008083540402835291602001916108f7565b820191906000526020600020905b8154815290600101906020018083116108da57829003601f168201915b5050505050815260200160038201805461091090611ea5565b80601f016020809104026020016040519081016040528092919081815260200182805461093c90611ea5565b80156109895780601f1061095e57610100808354040283529160200191610989565b820191906000526020600020905b81548152906001019060200180831161096c57829003601f168201915b505050505081526020016004820180546109a290611ea5565b80601f01602080910402602001604051908101604052809291908181526020018280546109ce90611ea5565b8015610a1b5780601f106109f057610100808354040283529160200191610a1b565b820191906000526020600020905b8154815290600101906020018083116109fe57829003601f168201915b50505050508152602001600582018054610a3490611ea5565b80601f0160208091040260200160405190810160405280929190818152602001828054610a6090611ea5565b8015610aad5780601f10610a8257610100808354040283529160200191610aad565b820191906000526020600020905b815481529060010190602001808311610a9057829003601f168201915b50505050508152505092505050610b0f565b508080610acb90611f08565b915050610687565b506040517f08c379a0000000000000000000000000000000000000000000000000000000008152600401610b0690611c3e565b60405180910390fd5b919050565b60038181548110610b2457600080fd5b9060005260206000209060060201600091509050806000015490806001018054610b4d90611ea5565b80601f0160208091040260200160405190810160405280929190818152602001828054610b7990611ea5565b8015610bc65780601f10610b9b57610100808354040283529160200191610bc6565b820191906000526020600020905b815481529060010190602001808311610ba957829003601f168201915b505050505090806002018054610bdb90611ea5565b80601f0160208091040260200160405190810160405280929190818152602001828054610c0790611ea5565b8015610c545780601f10610c2957610100808354040283529160200191610c54565b820191906000526020600020905b815481529060010190602001808311610c3757829003601f168201915b505050505090806003018054610c6990611ea5565b80601f0160208091040260200160405190810160405280929190818152602001828054610c9590611ea5565b8015610ce25780601f10610cb757610100808354040283529160200191610ce2565b820191906000526020600020905b815481529060010190602001808311610cc557829003601f168201915b505050505090806004018054610cf790611ea5565b80601f0160208091040260200160405190810160405280929190818152602001828054610d2390611ea5565b8015610d705780601f10610d4557610100808354040283529160200191610d70565b820191906000526020600020905b815481529060010190602001808311610d5357829003601f168201915b505050505090806005018054610d8590611ea5565b80601f0160208091040260200160405190810160405280929190818152602001828054610db190611ea5565b8015610dfe5780601f10610dd357610100808354040283529160200191610dfe565b820191906000526020600020905b815481529060010190602001808311610de157829003601f168201915b5050505050905086565b60008054906101000a900473ffffffffffffffffffffffffffffffffffffffff1673ffffffffffffffffffffffffffffffffffffffff163373ffffffffffffffffffffffffffffffffffffffff1614610e96576040517f08c379a0000000000000000000000000000000000000000000000000000000008152600401610e8d90611c5e565b60405180910390fd5b60005b6001548110156110ea578660038281548110610ede577f4e487b7100000000000000000000000000000000000000000000000000000000600052603260045260246000fd5b90600052602060002090600602016000015414156110d7578560038281548110610f31577f4e487b7100000000000000000000000000000000000000000000000000000000600052603260045260246000fd5b90600052602060002090600602016001019080519060200190610f559291906114f6565b508460038281548110610f91577f4e487b7100000000000000000000000000000000000000000000000000000000600052603260045260246000fd5b90600052602060002090600602016002019080519060200190610fb59291906114f6565b508360038281548110610ff1577f4e487b7100000000000000000000000000000000000000000000000000000000600052603260045260246000fd5b906000526020600020906006020160030190805190602001906110159291906114f6565b508260038281548110611051577f4e487b7100000000000000000000000000000000000000000000000000000000600052603260045260246000fd5b906000526020600020906006020160040190805190602001906110759291906114f6565b5081600382815481106110b1577f4e487b7100000000000000000000000000000000000000000000000000000000600052603260045260246000fd5b906000526020600020906006020160050190805190602001906110d59291906114f6565b505b80806110e290611f08565b915050610e99565b506040517f08c379a000000000000000000000000000000000000000000000000000000000815260040161111d90611c3e565b60405180910390fd5b60008054906101000a900473ffffffffffffffffffffffffffffffffffffffff1673ffffffffffffffffffffffffffffffffffffffff163373ffffffffffffffffffffffffffffffffffffffff16146111b4576040517f08c379a00000000000000000000000000000000000000000000000000000000081526004016111ab90611c5e565b60405180910390fd5b6000600154116111c357600080fd5b60005b6001548110156114f257816003828154811061120b577f4e487b7100000000000000000000000000000000000000000000000000000000600052603260045260246000fd5b90600052602060002090600602016000015414156114df576003600180546112339190611dfb565b8154811061126a577f4e487b7100000000000000000000000000000000000000000000000000000000600052603260045260246000fd5b9060005260206000209060060201600382815481106112b2577f4e487b7100000000000000000000000000000000000000000000000000000000600052603260045260246000fd5b90600052602060002090600602016000820154816000015560018201816001019080546112de90611ea5565b6112e99291906115b2565b5060028201816002019080546112fe90611ea5565b6113099291906115b2565b50600382018160030190805461131e90611ea5565b6113299291906115b2565b50600482018160040190805461133e90611ea5565b6113499291906115b2565b50600582018160050190805461135e90611ea5565b6113699291906115b2565b5090505060036001805461137d9190611dfb565b815481106113b4577f4e487b7100000000000000000000000000000000000000000000000000000000600052603260045260246000fd5b90600052602060002090600602016000808201600090556001820160006113db919061163f565b6002820160006113eb919061163f565b6003820160006113fb919061163f565b60048201600061140b919061163f565b60058201600061141b919061163f565b50506001600081548092919061143090611e7b565b9190505550600380548061146d577f4e487b7100000000000000000000000000000000000000000000000000000000600052603160045260246000fd5b600190038181906000526020600020906006020160008082016000905560018201600061149a919061163f565b6002820160006114aa919061163f565b6003820160006114ba919061163f565b6004820160006114ca919061163f565b6005820160006114da919061163f565b505090555b80806114ea90611f08565b9150506111c6565b5050565b82805461150290611ea5565b90600052602060002090601f016020900481019282611524576000855561156b565b82601f1061153d57805160ff191683800117855561156b565b8280016001018555821561156b579182015b8281111561156a57825182559160200191906001019061154f565b5b509050611578919061167f565b5090565b6040518060c001604052806000815260200160608152602001606081526020016060815260200160608152602001606081525090565b8280546115be90611ea5565b90600052602060002090601f0160209004810192826115e0576000855561162e565b82601f106115f1578054855561162e565b8280016001018555821561162e57600052602060002091601f016020900482015b8281111561162d578254825591600101919060010190611612565b5b50905061163b919061167f565b5090565b50805461164b90611ea5565b6000825580601f1061165d575061167c565b601f01602090049060005260206000209081019061167b919061167f565b5b50565b5b80821115611698576000816000905550600101611680565b5090565b60006116af6116aa84611d64565b611d3f565b9050828152602081018484840111156116c757600080fd5b6116d2848285611e39565b509392505050565b600082601f8301126116eb57600080fd5b81356116fb84826020860161169c565b91505092915050565b60008135905061171381612067565b92915050565b60006020828403121561172b57600080fd5b600082013567ffffffffffffffff81111561174557600080fd5b611751848285016116da565b91505092915050565b600080600080600060a0868803121561177257600080fd5b600086013567ffffffffffffffff81111561178c57600080fd5b611798888289016116da565b955050602086013567ffffffffffffffff8111156117b557600080fd5b6117c1888289016116da565b945050604086013567ffffffffffffffff8111156117de57600080fd5b6117ea888289016116da565b935050606086013567ffffffffffffffff81111561180757600080fd5b611813888289016116da565b925050608086013567ffffffffffffffff81111561183057600080fd5b61183c888289016116da565b9150509295509295909350565b60006020828403121561185b57600080fd5b600061186984828501611704565b91505092915050565b60008060008060008060c0878903121561188b57600080fd5b600061189989828a01611704565b965050602087013567ffffffffffffffff8111156118b657600080fd5b6118c289828a016116da565b955050604087013567ffffffffffffffff8111156118df57600080fd5b6118eb89828a016116da565b945050606087013567ffffffffffffffff81111561190857600080fd5b61191489828a016116da565b935050608087013567ffffffffffffffff81111561193157600080fd5b61193d89828a016116da565b92505060a087013567ffffffffffffffff81111561195a57600080fd5b61196689828a016116da565b9150509295509295509295565b600061197f8383611ab4565b905092915050565b600061199282611da5565b61199c8185611dc8565b9350836020820285016119ae85611d95565b8060005b858110156119ea57848403895281516119cb8582611973565b94506119d683611dbb565b925060208a019950506001810190506119b2565b50829750879550505050505092915050565b6000611a0782611db0565b611a118185611dd9565b9350611a21818560208601611e48565b611a2a81611fde565b840191505092915050565b6000611a4082611db0565b611a4a8185611dea565b9350611a5a818560208601611e48565b611a6381611fde565b840191505092915050565b6000611a7b601283611dea565b9150611a8682611fef565b602082019050919050565b6000611a9e602983611dea565b9150611aa982612018565b604082019050919050565b600060c083016000830151611acc6000860182611bfe565b5060208301518482036020860152611ae482826119fc565b91505060408301518482036040860152611afe82826119fc565b91505060608301518482036060860152611b1882826119fc565b91505060808301518482036080860152611b3282826119fc565b91505060a083015184820360a0860152611b4c82826119fc565b9150508091505092915050565b600060c083016000830151611b716000860182611bfe565b5060208301518482036020860152611b8982826119fc565b91505060408301518482036040860152611ba382826119fc565b91505060608301518482036060860152611bbd82826119fc565b91505060808301518482036080860152611bd782826119fc565b91505060a083015184820360a0860152611bf182826119fc565b9150508091505092915050565b611c0781611e2f565b82525050565b611c1681611e2f565b82525050565b60006020820190508181036000830152611c368184611987565b905092915050565b60006020820190508181036000830152611c5781611a6e565b9050919050565b60006020820190508181036000830152611c7781611a91565b9050919050565b60006020820190508181036000830152611c988184611b59565b905092915050565b6000602082019050611cb56000830184611c0d565b92915050565b600060c082019050611cd06000830189611c0d565b8181036020830152611ce28188611a35565b90508181036040830152611cf68187611a35565b90508181036060830152611d0a8186611a35565b90508181036080830152611d1e8185611a35565b905081810360a0830152611d328184611a35565b9050979650505050505050565b6000611d49611d5a565b9050611d558282611ed7565b919050565b6000604051905090565b600067ffffffffffffffff821115611d7f57611d7e611faf565b5b611d8882611fde565b9050602081019050919050565b6000819050602082019050919050565b600081519050919050565b600081519050919050565b6000602082019050919050565b600082825260208201905092915050565b600082825260208201905092915050565b600082825260208201905092915050565b6000611e0682611e2f565b9150611e1183611e2f565b925082821015611e2457611e23611f51565b5b828203905092915050565b6000819050919050565b82818337600083830152505050565b60005b83811015611e66578082015181840152602081019050611e4b565b83811115611e75576000848401525b50505050565b6000611e8682611e2f565b91506000821415611e9a57611e99611f51565b5b600182039050919050565b60006002820490506001821680611ebd57607f821691505b60208210811415611ed157611ed0611f80565b5b50919050565b611ee082611fde565b810181811067ffffffffffffffff82111715611eff57611efe611faf565b5b80604052505050565b6000611f1382611e2f565b91507fffffffffffffffffffffffffffffffffffffffffffffffffffffffffffffffff821415611f4657611f45611f51565b5b600182019050919050565b7f4e487b7100000000000000000000000000000000000000000000000000000000600052601160045260246000fd5b7f4e487b7100000000000000000000000000000000000000000000000000000000600052602260045260246000fd5b7f4e487b7100000000000000000000000000000000000000000000000000000000600052604160045260246000fd5b6000601f19601f8301169050919050565b7f50726f64756374206e6f7420666f756e64210000000000000000000000000000600082015250565b7f546869732066756e6374696f6e206973207265737472696374656420746f207460008201527f68652061646d696e2e0000000000000000000000000000000000000000000000602082015250565b61207081611e2f565b811461207b57600080fd5b5056fea2646970667358221220c24fc8e9b128436c434c29cffa07e5b1aa0fb91a7ff31dda0553081785ffdc2464736f6c63430008010033",
  "immutableReferences": {},
  "source": "// SPDX-License-Identifier: MIT\r\npragma solidity >=0.4.22 <0.9.0;\r\n\r\ncontract Catalog{\r\n    address private admin;\r\n    uint256 public totalProduct;\r\n    uint256 private idCount;\r\n\r\n    struct Product{\r\n        uint256 id;\r\n        string brandName;\r\n        string genericName;\r\n        string form;\r\n        string strength;\r\n        string packaging;\r\n    }\r\n\r\n    Product[] public all_products;\r\n\r\n    constructor() public {\r\n        admin = msg.sender;\r\n        totalProduct = 0;\r\n        idCount = 1;\r\n    }\r\n\r\n\r\n    modifier restricted() {\r\n        require(msg.sender == admin,\"This function is restricted to the admin.\");\r\n        _;\r\n    }\r\n\r\n    function read() public view returns (Product[] memory){\r\n        return all_products;\r\n    }\r\n    function search(string memory _name) public view returns (Product memory){\r\n        for( uint256 i = 0;i<totalProduct;i++){\r\n            string memory _pname = all_products[i].brandName;\r\n            if(keccak256(bytes(_name)) == keccak256(bytes(_pname))){\r\n                return all_products[i];\r\n            }\r\n        }\r\n        revert(\"Product not found!\");\r\n    }\r\n\r\n    function newProduct(string memory _brandName,string memory _genericName,string memory _form,string memory _strength,string memory _packaging) public restricted{\r\n        all_products.push(Product(idCount,_brandName,_genericName,_form,_strength,_packaging));\r\n        totalProduct++;\r\n        idCount++;\r\n    }\r\n\r\n    function updateProduct(uint256 _id,string memory _brandName,string memory _genericName,string memory _form,string memory _strength,string memory _packaging) public restricted{\r\n        for (uint256 i = 0; i < totalProduct; i++) {\r\n            if(all_products[i].id == _id){\r\n                all_products[i].brandName = _brandName;\r\n                all_products[i].genericName = _genericName;\r\n                all_products[i].form = _form;\r\n                all_products[i].strength = _strength;\r\n                all_products[i].packaging = _packaging;\r\n            }\r\n        }\r\n        revert(\"Product not found!\");\r\n    }\r\n    function deleteProduct(uint256 _id) public restricted{\r\n        require(totalProduct > 0);\r\n        for (uint256 i = 0; i < totalProduct; i++) {\r\n            if(all_products[i].id == _id){\r\n                all_products[i] = all_products[totalProduct-1];\r\n                delete all_products[totalProduct-1];\r\n                totalProduct--;\r\n                all_products.pop();\r\n            }\r\n        }\r\n    }\r\n}",
  "sourcePath": "C:/Cryptocurrency/catalog/contracts/Catalog.sol",
  "compiler": {
    "name": "solc",
    "version": "0.8.1+commit.df193b15.Emscripten.clang"
  },
  "schemaVersion": "3.3.4",
  "updatedAt": "2021-04-16T12:55:36.334Z",
  "devdoc": {
    "kind": "dev",
    "methods": {},
    "version": 1
  },
  "userdoc": {
    "kind": "user",
    "methods": {},
    "version": 1
  }
}